:020000040000FA
:100000000C9465000C948D000C948D000C948D0064
:100010000C948D000C948D000C948D000C948D002C
:100020000C948D000C948D000C948D000C948D001C
:100030000C948D000C948D000C948D000C948D000C
:100040000C944F100C948D000C94BF100C949910CC
:100050000C948D000C948D000C948D000C948D00EC
:100060000C948D000C948D007C3C3E5E2B3D3F2F0C
:100070005B5D3B2C2A225C000000000800020100AE
:100080000003040700000000000000000000000062
:10009000250028002B0000000000240027002A0073
:1000A000040404040404040402020202020203031E
:1000B0000303030301020408102040800102040826
:1000C0001020010204081020F11011241FBECFEFF0
:1000D000D8E0DEBFCDBF11E0A0E0B1E0E6E1FAE29A
:1000E00002C005900D92AE3BB107D9F724E0AEEB0C
:1000F000B1E001C01D92AD3BB207E1F710E0C5E6EB
:10010000D0E004C02197FE010E94B313C436D1078A
:10011000C9F70E9439110C9409150C94000090E065
:10012000FC01EC54FF4F249180569F4FFC018491B9
:10013000882399F090E0880F991FFC01EA56FF4F41
:10014000A591B491FC01E457FF4F859194918FB72D
:10015000F894EC91E22BEC938FBF089590E0FC01B2
:10016000E858FF4F2491FC01EC54FF4F3491FC01FF
:10017000E056FF4FE491EE23C9F0222339F02330FB
:1001800001F1A8F4213019F1223029F1F0E0EE0F4D
:10019000FF1FE457FF4FA591B4918FB7F894EC91EE
:1001A000611126C030953E233C938FBF08952730C0
:1001B000A9F02830C9F0243049F7809180008F7D64
:1001C00003C0809180008F7780938000DFCF84B55B
:1001D0008F7784BDDBCF84B58F7DFBCF8091B0005E
:1001E0008F778093B000D2CF8091B0008F7DF9CF10
:1001F0003E2BDACF2FB7F8946091CB017091CC01F0
:100200008091CD019091CE012FBF0895AF92BF9202
:10021000CF92DF92EF92FF920F931F93CF93DF93D2
:100220006C017B018B01040F151FEB015E01AE1801
:10023000BF08C017D10759F06991D601ED91FC9123
:100240000190F081E02DC6010995892B79F7C50150
:10025000DF91CF911F910F91FF90EF90DF90CF90A2
:10026000BF90AF900895FC01538D448D252F30E051
:10027000842F90E0821B930B541710F0CF960895B3
:1002800001970895FC01918D828D981761F0A28DE0
:10029000AE0FBF2FB11D5D968C91928D9F5F9F73A6
:1002A000928F90E008958FEF9FEF0895FC01918D5C
:1002B000828D981731F0828DE80FF11D858D90E0C9
:1002C00008958FEF9FEF0895FC01918D228D892F66
:1002D00090E0805C9F4F821B91098F73992708954E
:1002E00081ED93E00E94640121E0892B09F420E074
:1002F000822F089580E090E0892B29F00E94700100
:1003000081110C9400000895FC01A48DA80FB92F51
:10031000B11DA35ABF4F2C91848D90E001968F732D
:100320009927848FA689B7892C93A089B1898C914C
:10033000837080648C93938D848D981306C002889B
:10034000F389E02D80818F7D80830895EF92FF9265
:100350000F931F93CF93DF93EC0181E0888F9B8DE8
:100360008C8D98131AC0E889F989808185FF15C0A2
:100370009FB7F894EE89FF896083E889F9898081C5
:100380008370806480839FBF81E090E0DF91CF9194
:100390001F910F91FF90EF900895F62E0B8D10E0B6
:1003A0000F5F1F4F0F731127E02E8C8D8E110CC025
:1003B0000FB607FCFACFE889F989808185FFF5CF70
:1003C000CE010E948401F1CFEB8DEC0FFD2FF11DCA
:1003D000E35AFF4FF0829FB7F8940B8FEA89FB89AD
:1003E00080818062CFCFCF93DF93EC01888D88230B
:1003F000B9F0AA89BB89E889F9898C9185FD03C088
:10040000808186FD0DC00FB607FCF7CF8C9185FF6C
:10041000F2CF808185FFEDCFCE010E948401E9CF2C
:10042000DF91CF9108958FB7F8948091BF018FBF6E
:10043000089561E0FC0184810E94AE008091BE01BC
:1004400081111092BE0108958EBD00000DB407FE0B
:10045000FDCF8EB508958FEF0C9424020F931F9358
:10046000CF93DF93EC010E94FA008B010E942B02D4
:100470008F3F69F00E94FA00601B710B6C177D07BB
:10048000A8F380E0DF91CF911F910F91089581E053
:10049000F9CF8CBD9DBD0895CF93DF93EC01809182
:1004A000BE01811109C081E08093BE0180916E047C
:1004B00090916F040E94490260E08C81DF91CF919E
:1004C0000C94AE008F929F92AF92BF92FF920F93C7
:1004D0001F93CF93DF93EC01F62E49015A018E81D1
:1004E000882389F08F8198859C012F5F3F4F388743
:1004F0002F838230924018F40E942B02F3CFCE015A
:100500000E9419021E82CE010E944C028CE291E0F0
:100510000E942E028F2D80640E94240208E110E0C8
:10052000D501C401002E04C0B695A795979587956F
:100530000A94D2F70E94240208501109083F8FEF55
:10054000180771F785E9FF2021F028E087E8F2120B
:100550008FEF0E94240210E00E942B028A8787FFFF
:1005600004C01F3F11F01F5FF7CFDF91CF911F91A4
:100570000F91FF90BF90AF909F908F900895AF9292
:10058000BF92CF92DF92EF92FF920F931F93CF9380
:10059000DF93EC016901C801820F931F8130924003
:1005A00050F58E81882379F088819981AA81BB8159
:1005B00084179507A607B70731F48F819885C81669
:1005C000D90608F042C0488359836A837B838B85B0
:1005D000833039F089E0440F551F661F771F8A95D5
:1005E000D1F79A01AB0161E1CE010E94620288233A
:1005F00089F083E08D83CE010E94190280E0DF91B3
:10060000CF911F910F91FF90EF90DF90CF90BF900F
:10061000AF9008950E94FA005B010E942B028A8726
:100620008F3F69F40E94FA006A197B096D327140AC
:10063000A0F38FE08D83CE010E941902DCCF8E3FA4
:1006400089F418861F8281E08E838F8198858C15AE
:100650009D0550F40E942B028F8198850196988702
:100660008F83F3CF8DE0E6CF6701E00EF11E0E948D
:100670002B02F60181936F01EE15FF05C1F78F8103
:100680009885080F191F18870F838985882319F00B
:1006900001151240A0F08E81882389F08F81988502
:1006A0009C012F5F3F4F38872F838230924018F490
:1006B0000E942B02F3CFCE010E9419021E8281E01C
:1006C0009ECFCF92DF92EF92FF920F93CF93DF9363
:1006D000EC01690182E1411551056105710599F04F
:1006E0008B85833039F089E0440F551F661F771FD3
:1006F0008A95D1F79A01AB0168E1CE010E946202AE
:10070000882319F084E08D832DC08EEF0E9424028F
:1007100076018EEFD81AF70181917F010E942402A1
:10072000EC14FD04C1F78FEF0E9424028FEF0E94AA
:1007300024020E942B028A878F71853071F4011187
:1007400016C0CE010E94190281E0DF91CF910F9176
:10075000FF90EF90DF90CF90089581E18D83CE01DF
:100760000E941902CE010E94190280E0EECF88E5B6
:1007700092E00E942E02811102C085E1C4CF20E0E8
:1007800030E0A9016DE0CE010E946202882311F0E1
:1007900084E1B9CF0E942B028111FACFD2CF0F93FF
:1007A0004091C1015091C2016091C3017091C40197
:1007B000411551056105710599F0082F2FEC31E0C5
:1007C0008091CF039091D0030E946103882349F068
:1007D0001092C1011092C2011092C3011092C40183
:1007E00081E00F9108950F93CF93C82F8091C0019E
:1007F000811105C0C1E08C2FCF910F9108954091D8
:1008000000015091010160910201709103010C2FD0
:100810002FEC31E08091CF039091D0030E946103CF
:10082000811102C0C0E0E7CFCC2321F381E00E9418
:10083000CF038823B9F31092C001DDCF8F929F922E
:10084000AF92BF92EF92FF920F931F93CF934B0102
:100850005C01C42F8091000190910101A0910201DF
:10086000B091030188159905AA05BB0551F181E0F6
:100870000E94F30381110BC080E0CF911F910F9173
:10088000FF90EF90BF90AF909F908F9008958FEC66
:10089000E82E81E0F82E00E012E030E020E0B50123
:1008A000A4018091CF039091D0030E94BF028823BE
:1008B00019F38092000190920101A0920201B0927E
:1008C00003014091C0014C2B4093C00181E0D5CF82
:1008D0008F929F92AF92BF92CF92DF92EF92FF9250
:1008E000CF9320E734E03093D0032093CF038823C5
:1008F00009F46DC040E060E070E0CB010E941E048E
:1009000081110BC080E0CF91FF90EF90DF90CF90EE
:10091000BF90AF909F908F90089580918D038F77B7
:1009200089F78091990390919A03A0919B03B091CC
:100930009C0384369105A105B10520F3C090950371
:10094000D0909603E0909703F0909803C114D104DF
:10095000E104F104B9F240E0C701B6010E941E04AF
:10096000882381F28091DA019091DB018115924018
:1009700049F6A091DF01AA2329F26091DD0170916F
:10098000DE016115710509F4BDCF2091DC01222340
:1009900009F4B8CFA0938E042093800490E080E007
:1009A00030E0E1E0F0E0C82FAF01082E02C0440FB4
:1009B000551F0A94E2F72417350769F041E0480F04
:1009C00001968930910579F7409389049BCFC12C1A
:1009D000D12C7601C0CF809389042091E50130911C
:1009E000E60150E040E02115310541F42091F3018A
:1009F0003091F4014091F5015091F601209381046A
:100A00003093820440938304509384044601570139
:100A1000860E971EA11CB11C80928F0490929004A8
:100A2000A0929104B0929204E091E001F091E10172
:100A3000F0939504E0939404B0E00E94A813DC01C5
:100A4000CB01880D991DAA1DBB1D80939604909320
:100A50009704A0939804B093990425E0EE0FFF1F2C
:100A60002A95E1F7E150FE4FEF2FFF27E6958E0F15
:100A70009F1FA11DB11D80938A0490938B04A093A6
:100A80008C04B0938D048090E2019090E301B12C2E
:100A9000A12C8114910441F48090EF019090F00119
:100AA000A090F101B090F201C81AD90AEA0AFB0A33
:100AB000C80CD91CEA1CFB1C04C0F694E794D7941C
:100AC000C794CA95D2F7C0928504D0928604E0926A
:100AD0008704F092880485EFC8168FE0D806E104F9
:100AE000F10428F48CE08093930481E00CCF80E142
:100AF00025EFC2162FEFD206E104F104A0F3809196
:100B0000FB019091FC01A091FD01B091FE01809349
:100B1000960490939704A0939804B093990480E26C
:100B2000E2CF4F925F926F927F928F929F92AF929D
:100B3000BF92CF92DF92EF92FF920F931F93CF93CA
:100B4000DF93EC01423051056105710590F480E0BE
:100B5000DF91CF911F910F91FF90EF90DF90CF9099
:100B6000BF90AF909F908F907F906F905F904F90CD
:100B7000089589859A85AB85BC850196A11DB11D17
:100B800084179507A607B70710F3CB88DC88ED8894
:100B9000FE888F89803109F042C0BB27A72F962F8E
:100BA000852F480159012A013B01C80ED91EEA1EB2
:100BB000FB1E8091000190910101A0910201B09172
:100BC0000301C816D906EA06FB0699F58F8980311C
:100BD000C1F5B301A201552766277727440F551F9A
:100BE00041535E4FFA01918280828091C001816001
:100BF0008093C0018A89823080F08D819E81AF818F
:100C0000B8858C0D9D1DAE1DBF1D8093C1019093B5
:100C1000C201A093C301B093C40181E099CFDB016D
:100C2000CA01E7E0B695A79597958795EA95D1F71C
:100C3000B8CF40E0C701B6010E941E048111C6CFA3
:100C400086CFB301A2014F77552766277727440F38
:100C5000551F440F551F41535E4FFA018082918208
:100C6000A282B382C2CF8F929F92AF92BF92CF9255
:100C7000DF92EF92FF920F931F93CF93DF93FC01CC
:100C800081859285A385B4850196A11DB11D841728
:100C90009507A607B70770F480E0DF91CF911F9109
:100CA0000F91FF90EF90DF90CF90BF90AF909F900B
:100CB0008F90089583889488A588B6888789803125
:100CC00089F5BB27A72F962F852FE9016A017B01A4
:100CD0008F01BC01CD01680D791D8A1D9B1D80907F
:100CE000000190900101A0900201B09003018616CE
:100CF0009706A806B90601F5F8018789803111F534
:100D0000DD24EE24FF24F601EE0FFF1FE153FE4F1A
:100D100080819181B0E0A0E088839983AA83BB831E
:100D200081E0BBCFDB01CA01C7E0B695A7959795D7
:100D30008795CA95D1F7C9CF40E00E941E04811162
:100D4000DBCFAACFE894C7F8DD24EE24FF24F60118
:100D5000EE0FFF1FEE0FFF1FE153FE4F80819181C9
:100D6000A281B381BF70D8CF4F925F926F927F9272
:100D7000AF92BF92CF92DF92EF92FF920F931F93A9
:100D8000CF93DF9300D000D0CDB7DEB78C0149837D
:100D90005A836B837C835901C12CD12C7601412C61
:100DA00082E0582E612C712C49815A816B817C81A3
:100DB0009E012F5F3F4FC8010E943306882339F1FF
:100DC000F8018585A301920104C0220F331F441F3F
:100DD000551F8A95D2F7DA01C901C80ED91EEA1E3D
:100DE000FB1E49815A816B817C818789803111F199
:100DF00088EF9FEFAFEFBFE0481759076A077B07FF
:100E000098F2F501C082D182E282F38281E00F90F4
:100E10000F900F900F90DF91CF911F910F91FF9046
:100E2000EF90DF90CF90BF90AF907F906F905F90EA
:100E30004F90089588EF9FEFA0E0B0E0DDCFCF9313
:100E4000DF93FC012581222321F080E0DF91CF9107
:100E50000895EC0180919304803159F582E08583F7
:100E6000178A108E118E128E8091940490919504A1
:100E7000B0E0A0E025E0880F991FAA1FBB1F2A95AC
:100E8000D1F7838B948BA58BB68B8CE794E09C8FEA
:100E90008B8F81E08C831E821F82188619861A86AA
:100EA0001B861C861D861E861F86188A198A1A8A2A
:100EB000CDCF803251F683E08583409196045091E6
:100EC00097046091980470919904478B508F618FBB
:100ED000728F9F012D5E3F4F8CE794E00E94B40615
:100EE0008111D3CFB2CF8F929F92AF92BF92CF9208
:100EF000DF92EF92FF920F931F93CF93DF93EC015A
:100F00008D8181110EC080E0DF91CF911F910F91F3
:100F1000FF90EF90DF90CF90BF90AF909F908F9019
:100F200008950B891C892D893E890417150726070A
:100F3000370748F34A015B01823031F48A869B8689
:100F4000AC86BD8681E0E0CF81149104A104B10498
:100F500049F41E821F82188619861A861B861C86F3
:100F60001D86F0CF0A851B852C853D85EB8DFC8D7C
:100F7000858590E00996B901A801415051096109A0
:100F80007109082E04C076956795579547950A9480
:100F9000D2F775016401E1E0CE1AD108E108F10849
:100FA00004C0F694E794D794C7948A95D2F7C416F0
:100FB000D506E606F70620F0012B022B032B11F5D0
:100FC0008F89988DA98DBA8D8E839F83A887B987C5
:100FD0008E010A5F1F4FC114D104E104F10409F42A
:100FE000ADCF4E815F816885798598018B8D9C8D11
:100FF0000E94330691E0C91AD108E108F108811175
:10100000EACF81CFC41AD50AE60AF70AE1CF3F92A8
:101010004F925F926F927F928F929F92AF92BF9208
:10102000CF92DF92EF92FF920F931F93CF93DF93B4
:10103000CDB7DEB72C970FB6F894DEBF0FBECDBF8D
:101040005C01DC015B968D909C905C9716964D90B0
:101050005D906D907C901997411451046104710466
:1010600009F468C0BFEF4B1A5B0A6B0A7B0A312C8C
:10107000F40181859285A385B4859C01AD012F5F24
:101080003F4F4F4F5F4F29873A874B875C877301EC
:1010900062011D821E821F821886F401818592855D
:1010A000A385B4852D813E814F8158852817390746
:1010B0004A075B0708F056C089859A85AB85BC85D1
:1010C0008C159D05AE05BF0550F482E0C82ED12CCD
:1010D000E12CF12C92E0492E512C612C712C9E01B7
:1010E0002F5F3F4FB701A601C4010E94330688233A
:1010F000C9F189819A81AB81BC81892B8A2B8B2B89
:1011000009F1260137019FEF491A590A690A790A3C
:101110002D813E814F8158852F5F3F4F4F4F5F4F4D
:101120002D833E834F8358873FEFC31AD30AE30AC8
:10113000F30AB3CFF401408051806280738033247E
:10114000339496CFC414D504E604F70409F70FEFDF
:101150001FEF2FEF3FE0B701A601C4010E949105E8
:10116000811119C080E02C960FB6F894DEBF0FBE37
:10117000CDBFDF91CF911F910F91FF90EF90DF9046
:10118000CF90BF90AF909F908F907F906F905F9027
:101190004F903F900895D50116964D915D916D91B8
:1011A0007C911997411551056105710539F0970139
:1011B0008601C4010E9491058823A1F2D5011696EB
:1011C000CD92DD92ED92FC921997332051F0D70128
:1011D000C6010196A11DB11DF40180839183A283F4
:1011E000B383F5018789908DA18DB28D892B8A2BD0
:1011F0008B2B39F48481C78AD08EE18EF28E806881
:101200008483F50184818062848381E0ACCF1F9365
:10121000CF93DF93FC0125812223D1F1162FEC011E
:10122000848187FF2AC0668577858089918941E01E
:101230000E941E04882361F1EA8980E2E89FF001A0
:101240001124E153FE4F309719F18D81823040F423
:101250008B899C89AD89BE89848F958FA68FB78F26
:101260008F89988D938F828F8F89988DA98DBA8D54
:10127000B58BA48B8C818F778C83111103C08C81EB
:101280008F7E8C83812FDF91CF911F910C94F3037C
:1012900080E0DF91CF911F910895FF920F931F93EC
:1012A000CF93DF93EC018D81813041F090E080E0BD
:1012B000DF91CF911F910F91FF9008958C8181FF55
:1012C000F5CF82FD1BC00091CF031091D003C80160
:1012D0000E944C020E942B02F82EC8010E941902A3
:1012E0008FEFF812E3CF8C8185FF1BC060E0CE0149
:1012F0000E9407098C818F7D8C83D8CF4B895C89B4
:101300006D897E898A859B85AC85BD858417950707
:10131000A607B707C1F2CE010E9473078111D3CF90
:10132000C5CF4091C1015091C2016091C30170913C
:10133000C401452B462B472B21F080E00E94CF03B0
:10134000B5CF80618C832A853B85317080E092E047
:10135000821B930BADCFCF93DF93EC0161E00E9432
:101360000709882311F01D8281E0DF91CF91089554
:101370002F923F924F925F926F927F928F929F92A5
:10138000AF92BF92CF92DF92EF92FF920F931F9393
:10139000CF93DF9300D000D01F92CDB7DEB77C0192
:1013A0005B01342E5D83DC0115968C91159781309D
:1013B00009F0CEC014962C9021FECAC022FCB4C005
:1013C000C32CDD8022947FE027222094B22DB170BF
:1013D0002B2ED7011A964D915D916D917C911D97A1
:1013E000C114D10409F428C15B968D919C915C973E
:1013F000FC0174807A948A019B0169E036952795F7
:10140000179507956A95D1F770228A0111707110AE
:1014100020C001151105E9F416964D915D916D916D
:101420007C911997411551056105710509F099C025
:1014300057968D919D910D90BC91A02D0097A1057F
:10144000B10509F0B0C0C7010E940708882309F45C
:101450007FC080E092E0801B910B46018C159D05BA
:1014600008F44C01D7015B964D915C915C97169600
:101470008D919D910D90BC91A02D0297A109B1096C
:10148000FA01258504C0880F991FAA1FBB1F2A9542
:10149000D2F74685578560897189840F951FA61FED
:1014A000B71F9C01AD01270D311D411D511D2901A3
:1014B0003A01811432E0930609F07BC0809100016B
:1014C00090910101A0910201B0910301841595054D
:1014D000A605B70559F48FEF9FEFDC01809300015B
:1014E00090930101A0930201B0930301022D950195
:1014F000B301A2018091CF039091D0030E946103B8
:10150000882331F19EEFB91AC818D908F7018285EE
:101510009385A485B585880D991DA11DB11D828770
:101520009387A487B58755CFF70143895489658987
:10153000768982859385A485B585481759076A07FA
:101540007B0709F43DCFC7010E947307811138CF93
:1015500081E090E0D70113969C938E93129780E0E0
:1015600007C09E012F5F3F4F0E943306811102C0CA
:1015700090E079C089819A81AB81BC81F701238D8C
:10158000348DF901278948EF5FEF60E070E020318A
:1015900021F048EF5FEF6FEF7FE084179507A60714
:1015A000B70708F050CFF70186839783A087B187EC
:1015B00050CF0115110599F5D7011A964D915D91FE
:1015C0006D917C911D9753968D919D910D90BC913D
:1015D000A02D481759076A077B0708F181E00E9490
:1015E000F303882309F4B4CF409200015092010123
:1015F00060920201709203018091C001816080932A
:10160000C001C80181539E4FD5019C01280D391D91
:10161000FC012E173F0759F04D914193FACF41E05D
:10162000C301B2010E941E048111EBCF91CF281B90
:10163000390BA20EB31E68CFF70183899489A5895F
:10164000B68984179507A607B70738F48481438BBA
:10165000548B658B768B80688483F701848183FD4E
:101660001AC0832D9D810F900F900F900F900F90B7
:10167000DF91CF911F910F91FF90EF90DF90CF906E
:10168000BF90AF909F908F907F906F905F904F90A2
:101690003F902F90089561E0C7010E9407098823B9
:1016A00009F456CFDECFCF93DF931F92CDB7DEB7CD
:1016B000698341E050E0BE016F5F7F4F0E94B8092F
:1016C0000F90DF91CF910895FC01DB0112968D916F
:1016D0009C9113979383828382E391E0918380832B
:1016E00014968C911497848315968C911597858305
:1016F00016964D915D916D917C9119974683578314
:10170000608771871A964D915D916D917C911D97BF
:1017100042875387648775871E964D915D916D91C1
:101720007C91519746875787608B718B52968C912D
:101730005297828B53964D915D916D917C91569706
:10174000438B548B658B768B57964D915D916D9144
:101750007C915A97478B508F618F728F5B968D91DA
:101760009C91948F838F08950895FC01818D928DB3
:10177000009719F061E00C9407090895DC0159966F
:10178000ED91FC913097B9F083899489A589B68948
:101790004285538564857585841B950BA60BB70B15
:1017A000811520E89207A105B10538F08FEF9FE77A
:1017B000A0E0B0E0089590E080E00895DC01599643
:1017C0008D919C91009739F0DC01ED91FC910480A2
:1017D000F581E02D099490E080E00895CF93DF93A8
:1017E000EC01E98DFA8D309749F481E090E09B831C
:1017F0008A8390E080E0DF91CF9108951382128276
:10180000898D9A8D0E94B809E98DFA8D22813381E4
:10181000232B59F7F0CFCF93DF931F92CDB7DEB7CD
:101820006983DC01ED91FC910280F381E02D41E0C0
:1018300050E0BE016F5F7F4F09950F90DF91CF9110
:1018400008952F923F924F925F926F927F928F9264
:101850009F92AF92BF92CF92DF92EF92FF920F933F
:101860001F93CF93DF9300D01F92CDB7DEB7FC015B
:101870008581811118C08FEF9FEF0F900F900F900F
:10188000DF91CF911F910F91FF90EF90DF90CF905C
:10189000BF90AF909F908F907F906F905F904F9090
:1018A0003F902F900895848180FFE5CF438954892C
:1018B0006589768982859385A485B585312C212C0F
:1018C000481759076A077B0719F022242394312C03
:1018D0006F012101CE0101963C01DF011696BB8309
:1018E000AA834114510409F4C5C0F6014285538509
:1018F000648575854A01F1E09F22D6015B968D9142
:101900009C915C978A019B01E9E036952795179594
:101910000795EA95D1F71596EC91E230E9F5FC01CF
:10192000628D738D848D958D600F711F821F931F43
:10193000A12C22E0B22EA818B9084A145B0408F4BE
:101940005201F601248126FD04C0A114F2E0BF0675
:1019500071F4009100011091010120910201309178
:101960000301061717072807390709F05EC040E092
:101970000E941E04882309F47ECFC40181539E4F28
:10198000D3019C012A0D3B1DFC012E173F0709F4D2
:101990006CC041914D93F9CFDC011496BC90BA9480
:1019A000B0228114910479F4B1100DC0452B462B5F
:1019B000472B69F5F6018789908DA18DB28D8683BD
:1019C0009783A087B187D6015B96ED91FC915C97D8
:1019D00016966D917D918D919C9119976250710928
:1019E00081099109258504C0660F771F881F991FFB
:1019F0002A95D2F70685178520893189600F711FD6
:101A0000821F931F6B0D711D811D911D91CFD601FA
:101A100016964D915D916D917C9119972A813B812C
:101A20000E9433068111CFCF26CF73018501940127
:101A3000AB01BC018091CF039091D0030E94BF0203
:101A4000882309F418CF6A0C7B1CF60182859385E4
:101A5000A485B5858A0D9B1DA11DB11D8287938725
:101A6000A487B5874A185B083CCF281B390B620E48
:101A7000731EEBCF2A94232809F0FDCE898190E0D4
:101A8000FCCEFC01818D928D009711F00C94210CFD
:101A90008FEF9FEF08950F931F93CF93DF93EC0188
:101AA000898D9A8D10E000E0009799F00E94210C3A
:101AB0008C010F3F100769F0898D9A8DFC014285DA
:101AC00053856485758541505109610971090E94EA
:101AD0007307C801DF91CF911F910F910895CF92A5
:101AE000DF92EF92FF921F93CF93DF93EC0180E29E
:101AF000689FF0011124E153FE4F9385917161F0CD
:101B0000842F827449F080E0DF91CF911F91FF9084
:101B1000EF90DF90CF900895142F6A8B8091000191
:101B200090910101A0910201B09103018E879F87DE
:101B3000A88BB98BC488D588F12CE12C7601DD24E3
:101B4000CC24CF8AD88EE98EFA8E828D938DB0E028
:101B5000A0E0AC01BD014C295D296E297F294F8B86
:101B6000588F698F7A8F83858871B1F4848D958DB4
:101B7000A68DB78D8B8B9C8BAD8BBE8B81E08D83BF
:101B80001F701C831E821F82188619861A861B8668
:101B90001C861D8681E0B8CF803109F0B4CF9E014C
:101BA0002D5E3F4F8B8D9C8D0E94B406882309F4D7
:101BB000AACF84E0E4CFFB0101900020E9F7319740
:101BC000AF01461B570BDC01ED91FC910280F381C4
:101BD000E02D09948F929F92AF92BF92EF92FF9265
:101BE0000F931F93CF93DF93CDB7DEB7A1970FB6B7
:101BF000F894DEBF0FBECDBF7C01FA01CB0119A264
:101C0000223008F42AE08E010F5D1F4F822E912CA6
:101C1000B12CA12CBF01A50194010E948613F901EA
:101C2000CA016A300CF5605DD8016E938D01232BDB
:101C3000242B252B79F790E080E0109721F0BD014F
:101C4000C7010E94DB0DA1960FB6F894DEBF0FBE50
:101C5000CDBFDF91CF911F910F91FF90EF90BF907B
:101C6000AF909F908F900895695CDECFCF92DF9206
:101C7000EF92FF920F931F93CF93DF93EC016A01D2
:101C80007B016DE20E940B0C8C0144275527BA01A1
:101C90004C195D096E097F092AE0CE010E94EA0D08
:101CA000800F911FDF91CF911F910F91FF90EF90C7
:101CB000DF90CF900895CF93DF93BC0181ED93E047
:101CC0000E94DB0DEC016AE371E081ED93E00E947C
:101CD000DB0D8C0F9D1FDF91CF9108953F924F92A6
:101CE0005F926F927F928F929F92AF92BF92CF92AC
:101CF000DF92EF92FF920F931F93CF93DF93CDB7B5
:101D0000DEB72B970FB6F894DEBF0FBECDBF7C01B8
:101D1000FE013196CE010C966F0130E23193E81747
:101D2000F907E1F7DA0130E087E09D91B92E9923B8
:101D300009F43CC09E32F1F48A30C9F480E02B965D
:101D40000FB6F894DEBF0FBECDBFDF91CF911F91CC
:101D50000F91FF90EF90DF90CF90BF90AF909F904A
:101D60008F907F906F905F904F903F90089538E0F4
:101D70008AE0DBCFE8E6F0E04491442321F031969D
:101D80009413FACFDBCF8317C8F24FED490F4E35CE
:101D9000A8F64FE9490F4A3118F440EEB42EB90EB7
:101DA000F601E30FF11DB0823F5FBFCF8981803222
:101DB00029F2322E8B01DB015B968D919C915C9711
:101DC000F701948F838F16961D921D921D921C927F
:101DD0001997FB011286138614861586F8018285F1
:101DE0009385A485B5854389548965897689841747
:101DF0009507A607B70708F04DC025E0B695A7954B
:101E0000979587952A95D1F7F82FFF70AF2ED801B7
:101E100015968C91823008F491CFC8010E94210C54
:101E200097FD8CCFF80182859385A485B5854F9663
:101E3000A11DB11D82879387A487B587F0E2AF9E6D
:101E4000B001112461537E4F6115710509F476CFFD
:101E5000DB018C91882341F0853E09F062C0BB20F4
:101E600029F0BB24B394BACFB1100EC0F701A28AF7
:101E70008091000190910101A0910201B0910301B4
:101E800086879787A08BB18BDB018C918111E9CF7D
:101E9000BB24B394832D8271823109F04FCFBB20D4
:101EA00009F44DC0F701668577858089918941E005
:101EB0000E941E04882309F441CFD70152968C91C9
:101EC000B0E28B9FC001112481539E4F009709F40B
:101ED00035CFFC013A9626E1DF011D922A95E9F7FC
:101EE0002BE0F601DC0101900D922A95E1F721E249
:101EF00038E2FC01318B208B40E058E05787468761
:101F0000338B228B318F208F578B468B81E00E9441
:101F1000F303882309F412CF432DD70152966C9115
:101F20000AC04BE050E0C6010E94ED14892B09F075
:101F300055CF432D6A2DC7010E946F0D00CFF801C8
:101F40008581823009F4FACEC8010E9407088823EF
:101F500009F4F4CED8015B96ED91FC915C9716964E
:101F60008D909D90AD90BC901997B2E08B1A91081E
:101F7000A108B108858504C0880C991CAA1CBB1C4B
:101F80008A95D2F786859785A089B189880E991E92
:101F9000AA1EBB1E848124013501480E511C611C00
:101FA000711C84149504A604B70409F1E1E04E1AEB
:101FB00051086108710881E00E94F303882309F445
:101FC000BDCEEFECF1E011928FEC93E08E179F07FE
:101FD000D1F740920001509201016092020170928B
:101FE00003018091C00181608093C001DACFD801E4
:101FF0005B96ED91FC91258580E092E0A0E0B0E059
:1020000004C0880F991FAA1FBB1F2A95D2F7F80199
:102010004389548965897689840F951FA61FB71F48
:10202000838B948BA58BB68BD70152961C928FEC29
:1020300091E04FCFEF92FF920F931F93CF93DF93D7
:10204000EC017B018A011B821A8288EE93E0A0E0FA
:10205000B0E08C839D83AE83BF838EE091E0998353
:1020600088838DE190E00E94C8139A8F898F009732
:1020700079F02DE1F701DC0101900D922A95E1F74D
:102080004CE050E0B801CE010C960E94FA14188E74
:10209000DF91CF911F910F91FF90EF9008951F92C4
:1020A0000F920FB60F9211242F933F938F939F930C
:1020B000AF93BF938091CB019091CC01A091CD01C2
:1020C000B091CE013091CA0123E0230F2D3758F58E
:1020D0000196A11DB11D2093CA018093CB0190935D
:1020E000CC01A093CD01B093CE018091C601909117
:1020F000C701A091C801B091C9010196A11DB11DF0
:102100008093C6019093C701A093C801B093C90101
:10211000BF91AF919F918F913F912F910F900FBEE3
:102120000F901F90189526E8230F0296A11DB11D50
:10213000D2CF1F920F920FB60F9211242F933F937D
:102140004F935F936F937F938F939F93AF93BF93BF
:10215000EF93FF9381ED93E00E948401FF91EF9153
:10216000BF91AF919F918F917F916F915F914F91AF
:102170003F912F910F900FBE0F901F9018951F92B7
:102180000F920FB60F9211242F938F939F93EF937B
:10219000FF93E091E103F091E2038081E091E70396
:1021A000F091E80382FD1BC090818091EA038F5F6C
:1021B0008F732091EB03821741F0E091EA03F0E086
:1021C000EF52FC4F958F8093EA03FF91EF919F911F
:1021D0008F912F910F900FBE0F901F9018958081B7
:1021E000F4CFE1EDF3E01382128288EE93E0A0E0F9
:1021F000B0E084839583A683B78380E291E09183E6
:10220000808385EC90E09587848784EC90E09787C5
:10221000868780EC90E0918B808B81EC90E0938BB3
:10222000828B82EC90E0958B848B86EC90E0978B90
:10223000868B118E128E138E148EEEE6F4E080E5FE
:1022400080831182E0E7F4E01582168211861386FE
:1022500082E090E0A0E0B0E084879587A687B7870A
:1022600013A215A614A682E391E093A782A717A64E
:102270000895CF93DF93CDB7DEB7C257D1090FB61C
:10228000F894DEBF0FBECDBF789484B5826084BD64
:1022900084B5816084BD85B5826085BD85B581606A
:1022A00085BD80916E00816080936E0010928100E8
:1022B00080918100826080938100809181008160A3
:1022C0008093810080918000816080938000809164
:1022D000B10084608093B1008091B00081608093F0
:1022E000B00080917A00846080937A0080917A00B7
:1022F000826080937A0080917A00816080937A0076
:1023000080917A00806880937A001092C100E091F9
:10231000E103F091E20382E08083E091DD03F0913C
:10232000DE031082E091DF03F091E0038FEC808305
:102330001092E903E091E503F091E60386E08083E3
:10234000E091E303F091E403808180618083E09178
:10235000E303F091E403808188608083E091E303EC
:10236000F091E403808180688083E091E303F09141
:10237000E40380818F7D80838DE391E00E945B0E7A
:102380008AE00E948F0080919F04882321F08AE9CF
:1023900094E00E94AB0910927B0410927904109291
:1023A0007604109275048AE0809374040E94FA0007
:1023B0008B01809174040E948F0061E0809174040D
:1023C0000E94AE00FFB6F8948091C501811124C02F
:1023D000EAEAF0E08491EEEBF0E09491E82FF0E08F
:1023E000EE0FFF1FEA56FF4FA591B491EC91E92340
:1023F00021F461E08AE00E94AE008AE00E948F0032
:102400008CB580618CBD8CB580648CBD8DE00E94E4
:102410008F008BE00E948F008091C5018F5F8093B9
:10242000C501FFBE82E580936E0410926F04809117
:102430006E0490916F040E9449023AE0F32E8FEFF0
:102440000E942402FA94F110FACF80E794E00E94EF
:102450004C0220E030E0A90160E080E794E00E94B7
:102460006202F82E80937A0481E0F81689F00E94C7
:10247000FA00601B710B613D774058F381E0809357
:10248000750480E794E00E9419028AE691E07CC01E
:102490002AEA31E040E050E068E080E794E00E9402
:1024A000620282FF2AC0F0927B0480917B04C12CDF
:1024B000D12C7601823029F4C12CD12CE12C90E46E
:1024C000F92E20E030E0A90167E380E794E00E9464
:1024D0006202A701960169E280E794E00E9462022D
:1024E00080937A048823D1F00E94FA00601B710B5C
:1024F000613D774030F388E0C2CF24E0F22E0E94A5
:102500002B0280937A04FA94F110F9CF8A3A11F0F1
:1025100082E0B5CF82E080937B04C7CF80917B04BB
:102520008230D1F420E030E0A9016AE380E794E052
:102530000E946202882311F086E0A1CF0E942B0244
:10254000807C803C19F483E080937B040E942B0202
:102550000E942B020E942B0280E794E00E94190245
:1025600080E580936E0410926F0481E00E946804FD
:10257000882309F494C08AE994E00E941F07882305
:1025800009F483CF85E591E00E945B0E1C821B82DB
:1025900002E311E01A8309831E82CE0101960E9494
:1025A0001F07BE016F5F7F4FCE01CB960E94640B69
:1025B00019A218A21F8F0E8F1BA221968FAD2197F3
:1025C000811174C06C961FAE1EAE6C9788EE93E0BE
:1025D000A0E0B0E0A0968CAF9DAFAEAFBFAFA0972C
:1025E0008EE091E06A969FAF8EAF6A97E3961FAE3A
:1025F0001EAEE397A5961FAEA597E396EEADFFAD91
:10260000E397309709F47DC08581882309F479C068
:10261000C12CD12C76012AE0B701A601CE01885A3F
:102620009F4F0E94EA0D66E871E0CE01885A9F4FE5
:102630000E94DB0DB701A601440F551F661F771FCF
:102640002AE0CE01885A9F4F0E94EA0D6AE371E0AA
:10265000CE01885A9F4F0E94DB0D8FEFC81AD80A0F
:10266000E80AF80A8BE0C816D104E104F10499F6EF
:10267000E3968EAD9FADE397009761F00E94AB09A2
:10268000E3968EAD9FADE3970E946414E3961FAE70
:102690001EAEE39784EB91E00E945B0EFFCF80E0DB
:1026A0000E946804882309F4F0CE65CF27E14BEA45
:1026B00051E0BE01655C7F4FCE014E960E946E0ECA
:1026C000882309F47FCFCE01CB960E94AB0949A99C
:1026D0005AA96BA97CA9CE014E960E947307BE0130
:1026E000625E7F4FCE0101960E94640B4BEA51E07F
:1026F000BE016F5F7F4FCE01885A9F4F0E941A1014
:102700007CCF8DE991E00E945B0EC4CFA1E21A2E2E
:10271000AA1BBB1BFD010DC0AA1FBB1FEE1FFF1F85
:10272000A217B307E407F50720F0A21BB30BE40BD5
:10273000F50B661F771F881F991F1A9469F760951C
:102740007095809590959B01AC01BD01CF010895D6
:102750000E94B913A59F900DB49F900DA49F800D6A
:10276000911D11240895EE0FFF1F0590F491E02DA7
:102770000994A29FB001B39FC001A39F700D811D5A
:102780001124911DB29F700D811D1124911D08957A
:102790000F931F93CF93DF938230910510F482E063
:1027A00090E0E091BB04F091BC0430E020E0B0E0A8
:1027B000A0E0309799F42115310509F44AC0281B8F
:1027C000390B24303105D8F58A819B81611571055B
:1027D00089F1FB0193838283FE0111C04081518105
:1027E0000281138148175907E0F04817590799F4F7
:1027F000109761F012960C93129713961C933296D1
:10280000CF01DF91CF911F910F9108950093BB04E9
:102810001093BC04F4CF2115310551F04217530732
:1028200038F0A901DB019A01BD01DF01F801C1CF38
:10283000EF01F9CF9093BC048093BB04CDCFFE0190
:10284000E20FF31F8193919322503109398328833A
:10285000D7CF2091B9043091BA04232B41F42091B1
:102860000601309107013093BA042093B9042091F6
:102870000401309105012115310541F42DB73EB712
:102880004091080150910901241B350BE091B904D6
:10289000F091BA04E217F307A0F42E1B3F0B2817A0
:1028A000390778F0AC014E5F5F4F2417350748F0C9
:1028B0004E0F5F1F5093BA044093B90481939193D4
:1028C0009FCFF0E0E0E09CCFCF93DF930097E9F05B
:1028D000FC01329713821282A091BB04B091BC0418
:1028E000ED0130E020E01097A1F420813181820FCA
:1028F000931F2091B9043091BA042817390709F0C1
:1029000061C0F093BA04E093B904DF91CF910895C8
:10291000EA01CE17DF07E8F54A815B819E01411588
:102920005105B1F7E901FB83EA8349915991C40F3D
:10293000D51FEC17FD0761F4808191810296840F09
:10294000951FE90199838883828193819B838A8380
:10295000F0E0E0E012968D919C9113970097B9F505
:102960002D913C911197CD010296820F931F2091DA
:10297000B9043091BA042817390739F6309751F560
:102980001092BC041092BB04B093BA04A093B90493
:10299000BCCFD383C28340815181840F951FC81758
:1029A000D90761F44E5F5F4F88819981480F591FA5
:1029B000518340838A819B819383828321153105D2
:1029C00009F0B0CFF093BC04E093BB049ECFFD01AF
:1029D000DC01C0CF13821282D7CFFB01DC0104C01F
:1029E0008D910190801921F441505040C8F7881B07
:1029F000990B0895FB01DC014150504048F00190D3
:102A00000D920020C9F701C01D9241505040E0F7DF
:102A10000895F894FFCFFFFFFFFF0000BD04800082
:102A2000000000000B0CEE0BDE0BB50BBE0B410DD6
:102A30004B0D00000000A60106013301F301640103
:102A40004201560100000000530B06014D09B40B72
:102A50000D0A00496E697469616C697A696E672054
:102A6000534420636172642E2E2E006D656D6F726B
:102A700079206361726420697320726561647900F2
:102A800043617264206661696C65642C206F7220FA
:102A90006E6F742070726573656E7400206D756C56
:102AA0007469706C6965642062792074776F20693D
:102AB0007320006572726F72206F70656E696E6749
:102AC00020444154412E5458540066696E6973681D
:042AD0006564000039
:107E0000112484B714BE81FFF0D085E080938100F7
:107E100082E08093C00088E18093C10086E0809377
:107E2000C20080E18093C4008EE0C9D0259A86E02C
:107E300020E33CEF91E0309385002093840096BBD3
:107E4000B09BFECF1D9AA8958150A9F7CC24DD24C4
:107E500088248394B5E0AB2EA1E19A2EF3E0BF2EE7
:107E6000A2D0813461F49FD0082FAFD0023811F036
:107E7000013811F484E001C083E08DD089C08234E0
:107E800011F484E103C0853419F485E0A6D080C0E4
:107E9000853579F488D0E82EFF2485D0082F10E0AE
:107EA000102F00270E291F29000F111F8ED06801E7
:107EB0006FC0863521F484E090D080E0DECF843638
:107EC00009F040C070D06FD0082F6DD080E0C81688
:107ED00080E7D80618F4F601B7BEE895C0E0D1E017
:107EE00062D089930C17E1F7F0E0CF16F0E7DF06D8
:107EF00018F0F601B7BEE89568D007B600FCFDCFD4
:107F0000A601A0E0B1E02C9130E011968C91119780
:107F100090E0982F8827822B932B1296FA010C0160
:107F200087BEE89511244E5F5F4FF1E0A038BF0790
:107F300051F7F601A7BEE89507B600FCFDCF97BE46
:107F4000E89526C08437B1F42ED02DD0F82E2BD052
:107F50003CD0F601EF2C8F010F5F1F4F84911BD097
:107F6000EA94F801C1F70894C11CD11CFA94CF0C13
:107F7000D11C0EC0853739F428D08EE10CD085E9AC
:107F80000AD08FE07ACF813511F488E018D01DD067
:107F900080E101D065CF982F8091C00085FFFCCF94
:107FA0009093C60008958091C00087FFFCCF809118
:107FB000C00084FD01C0A8958091C6000895E0E648
:107FC000F0E098E1908380830895EDDF803219F02E
:107FD00088E0F5DFFFCF84E1DECF1F93182FE3DFCA
:107FE0001150E9F7F2DF1F91089580E0E8DFEE27F6
:047FF000FF270994CA
:027FFE00040479
:00000001FF
