:100000000C9435000C945D000C945D000C945D0024
:100010000C945D000C945D000C945D000C945D00EC
:100020000C945D000C945D000C945D000C945D00DC
:100030000C945D000C945D000C945D000C945D00CC
:100040000C94BE020C945D000C942E030C940803D7
:100050000C945D000C945D000C945D000C945D00AC
:100060000C945D000C945D007A0411241FBECFEF48
:10007000D8E0DEBFCDBF11E0A0E0B1E0EAE1FEE0F4
:1000800002C005900D92A434B107D9F721E0A4E491
:10009000B1E001C01D92A23FB207E1F710E0C5E355
:1000A000D0E004C02197FE010E940507C433D107A8
:1000B000C9F70E9460030C940B070C9400003FB733
:1000C000F8948091510190915201A0915301B09107
:1000D000540126B5A89B05C02F3F19F00196A11D1C
:1000E000B11D3FBFBA2FA92F982F8827BC01CD0182
:1000F000620F711D811D911D42E0660F771F881FE1
:10010000991F4A95D1F70895AF92BF92CF92DF928F
:10011000EF92FF920F931F93CF93DF936C017B01BC
:100120008B01040F151FEB015E01AE18BF08C0174D
:10013000D10759F06991D601ED91FC910190F081C0
:10014000E02DC6010995892B79F7C501DF91CF9183
:100150001F910F91FF90EF90DF90CF90BF90AF90E5
:100160000895FC01538D448D252F30E0842F90E0BD
:10017000821B930B541710F0CF96089501970895A2
:10018000FC01918D828D981761F0A28DAE0FBF2F6B
:10019000B11D5D968C91928D9F5F9F73928F90E0C1
:1001A00008958FEF9FEF0895FC01918D828D981730
:1001B00031F0828DE80FF11D858D90E008958FEF6D
:1001C0009FEF0895FC01918D228D892F90E0805C36
:1001D0009F4F821B91098F739927089585E591E0C0
:1001E0000E94E20021E0892B09F420E0822F08958B
:1001F00080E090E0892B29F00E94EE0081110C94A0
:1002000000000895FC01A48DA80FB92FB11DA35AB9
:10021000BF4F2C91848D90E001968F739927848F26
:10022000A689B7892C93A089B1898C918370806449
:100230008C93938D848D981306C00288F389E02DEA
:1002400080818F7D80830895EF92FF920F931F939B
:10025000CF93DF93EC0181E0888F9B8D8C8D981379
:100260001AC0E889F989808185FF15C09FB7F89485
:10027000EE89FF896083E889F989808183708064D1
:1002800080839FBF81E090E0DF91CF911F910F911C
:10029000FF90EF900895F62E0B8D10E00F5F1F4F2B
:1002A0000F731127E02E8C8D8E110CC00FB607FC3A
:1002B000FACFE889F989808185FFF5CFCE010E94C8
:1002C0000201F1CFEB8DEC0FFD2FF11DE35AFF4F33
:1002D000F0829FB7F8940B8FEA89FB898081806256
:1002E000CFCFCF93DF93EC01888D8823B9F0AA8913
:1002F000BB89E889F9898C9185FD03C0808186FDE1
:100300000DC00FB607FCF7CF8C9185FFF2CF80812F
:1003100085FFEDCFCE010E940201E9CFDF91CF91A1
:100320000895FC0101900020E9F73197AF01481BC7
:10033000590BBC0185E591E00C9484008F929F924B
:10034000AF92BF920F931F93CF93DF93CDB7DEB7DA
:10035000A1970FB6F894DEBF0FBECDBF19A24230F1
:1003600008F44AE08E010F5D1F4F842E912CB12CB2
:10037000A12CA50194010E94E306E62FB901CA0150
:10038000EA30F4F4E05DD801EE938D01232B242BA9
:10039000252B79F790E080E0109719F0CD010E94AD
:1003A0009101A1960FB6F894DEBF0FBECDBFDF91CD
:1003B000CF911F910F91BF90AF909F908F90089514
:1003C000E95CE1CF4F925F926F927F928F929F9202
:1003D000AF92BF92CF92DF92EF92FF920F931F9353
:1003E000CF936B017C01742EAC019B010E94DE0651
:1003F000882399F082E191E0CF911F910F91FF90B6
:10040000EF90DF90CF90BF90AF909F908F907F90B4
:100410006F905F904F900C94910146015701E894C2
:10042000B7F82FEF3FEF4FE75FE7C501B4010E9438
:10043000DE0681110DC02FEF3FEF4FE75FE7C501EB
:10044000B4010E94140518161CF486E191E0D4CF83
:100450002FEF3FEF4FE75FE4C701B6010E946C0644
:1004600018161CF48AE191E0C7CF2FEF3FEF4FE75A
:100470005FECC701B6010E94140587FDF3CF20E0B1
:1004800030E0A901C701B6010E94140510E000E0A8
:1004900087FF0AC06DE285E591E00E9424018C018E
:1004A000F7FAF094F7F8F094C0E060E070E080E0D4
:1004B0009FE37C1641F020E030E040E251E40E94EE
:1004C0001905CF5FF6CFA70196010E94A8042B0162
:1004D0003C010E948B054B015C014AE00E949E0199
:1004E0007C01E00EF11ECC23C1F1C501B4010E94D4
:1004F000BA059B01AC01C301B2010E94A7044B01E4
:100500005C016EE285E591E00E942401E80EF91E8F
:10051000C15018F120E030E040E251E4C501B401DF
:100520000E9471062B013C010E948B054B01B12CEE
:10053000A12C4AE0C501B4010E949E01E80EF91EFB
:10054000C501B4010E94BA059B01AC01C301B2010F
:100550000E94A7044B015C01DBCFC701CF911F9123
:100560000F91FF90EF90DF90CF90BF90AF909F9052
:100570008F907F906F905F904F9008951F920F9291
:100580000FB60F9211242F933F938F939F93AF93A6
:10059000BF9380914D0190914E01A0914F01B09178
:1005A000500130914C0123E0230F2D3758F501966F
:1005B000A11DB11D20934C0180934D0190934E01DC
:1005C000A0934F01B093500180915101909152013D
:1005D000A0915301B09154010196A11DB11D8093CA
:1005E000510190935201A0935301B0935401BF91D4
:1005F000AF919F918F913F912F910F900FBE0F90D0
:100600001F90189526E8230F0296A11DB11DD2CF89
:100610001F920F920FB60F9211242F933F934F9377
:100620005F936F937F938F939F93AF93BF93EF935A
:10063000FF9385E591E00E940201FF91EF91BF9148
:10064000AF919F918F917F916F915F914F913F916A
:100650002F910F900FBE0F901F9018951F920F9221
:100660000FB60F9211242F938F939F93EF93FF93C5
:10067000E0916501F09166018081E0916B01F0915C
:100680006C0182FD1BC0908180916E018F5F8F7322
:1006900020916F01821741F0E0916E01F0E0EB5A7A
:1006A000FE4F958F80936E01FF91EF919F918F91F7
:1006B0002F910F900FBE0F901F9018958081F4CF4F
:1006C000789484B5826084BD84B5816084BD85B52D
:1006D000826085BD85B5816085BD80916E00816039
:1006E00080936E00109281008091810082608093DF
:1006F00081008091810081608093810080918000E1
:100700008160809380008091B10084608093B1000B
:100710008091B00081608093B00080917A00846005
:1007200080937A0080917A00826080937A00809131
:100730007A00816080937A0080917A00806880934B
:100740007A001092C100E0916501F091660182E0AB
:100750008083E0916101F09162011082E091630178
:10076000F09164018FEC808310926D01E09169013A
:10077000F0916A0186E08083E0916701F091680161
:10078000808180618083E0916701F09168018081C0
:1007900088608083E0916701F091680180818068C2
:1007A0008083E0916701F091680180818F7D808373
:1007B00010E4C0E0D0E010937C0080917A00806467
:1007C00080937A0080917A0086FDFCCF609178005A
:1007D00070917900072E000C880B990B0E94BC05C4
:1007E00020E030E44CE955E40E94710620E030E05E
:1007F00040E85AE30E94710620E030E04AEF53E4FB
:100800000E94A70420E030E040E251E40E94190574
:10081000609348017093490180934A0190934B0182
:1008200026E636E646EE5FE30E94710620E030E001
:1008300040E052E40E94A804609344017093450193
:1008400080934601909347018EE191E00E949101CF
:10085000609148017091490180914A0190914B014A
:1008600042E00E94E2018EE291E00E9491016091DB
:10087000440170914501809146019091470142E009
:100880000E94E20188E391E00E94910180E491E0FE
:100890000E9491010E945F004B015C0188EEC82E0E
:1008A00083E0D82EE12CF12C0E945F0068197909B1
:1008B0008A099B09683E734081059105A8F321E0F0
:1008C000C21AD108E108F10888EE880E83E0981E6C
:1008D000A11CB11CC114D104E104F10429F7209733
:1008E00009F469CF0E94EE00882309F464CF0E94C6
:1008F000000061CFE5E5F1E01382128288EE93E01B
:10090000A0E0B0E084839583A683B78384E091E080
:100910009183808385EC90E09587848784EC90E0D8
:100920009787868780EC90E0918B808B81EC90E0BC
:10093000938B828B82EC90E0958B848B86EC90E09D
:10094000978B868B118E128E138E148E08955058AD
:10095000BB27AA270E94BF040C9432060E942406DB
:1009600038F00E942B0620F039F49F3F19F426F44A
:100970000C9421060EF4E095E7FB0C941B06E92F7E
:100980000E94430658F3BA17620773078407950756
:1009900020F079F4A6F50C9465060EF4E0950B2E84
:1009A000BA2FA02D0B01B90190010C01CA01A001C1
:1009B0001124FF27591B99F0593F50F4503E68F11C
:1009C0001A16F040A22F232F342F4427585FF3CF5D
:1009D000469537952795A795F0405395C9F77EF42E
:1009E0001F16BA0B620B730B840BBAF09150A1F077
:1009F000FF0FBB1F661F771F881FC2F70EC0BA0FFD
:100A0000621F731F841F48F4879577956795B79584
:100A1000F7959E3F08F0B0CF9395880F08F099277F
:100A2000EE0F9795879508950E94F70508F481E0E9
:100A300008950E942D050C9432060E942B0658F052
:100A40000E94240640F029F45F3F29F00C941B0615
:100A500051110C9466060C9421060E94430668F31B
:100A60009923B1F3552391F3951B550BBB27AA2767
:100A700062177307840738F09F5F5F4F220F331FA1
:100A8000441FAA1FA9F335D00E2E3AF0E0E832D069
:100A900091505040E695001CCAF72BD0FE2F29D06C
:100AA000660F771F881FBB1F261737074807AB073E
:100AB000B0E809F0BB0B802DBF01FF2793585F4FB3
:100AC0003AF09E3F510578F00C941B060C94660694
:100AD0005F3FE4F3983ED4F3869577956795B79595
:100AE000F7959F5FC9F7880F911D9695879597F9A0
:100AF0000895E1E0660F771F881FBB1F6217730719
:100B00008407BA0720F0621B730B840BBA0BEE1F2D
:100B100088F7E09508950E944B0688F09F5798F05B
:100B2000B92F9927B751B0F0E1F0660F771F881FF2
:100B3000991F1AF0BA95C9F714C0B13091F00E940C
:100B40006506B1E008950C946506672F782F882715
:100B5000B85F39F0B93FCCF3869577956795B39533
:100B6000D9F73EF490958095709561957F4F8F4FA2
:100B70009F4F0895E89409C097FB3EF490958095A7
:100B8000709561957F4F8F4F9F4F9923A9F0F92F53
:100B900096E9BB279395F695879577956795B795D1
:100BA000F111F8CFFAF4BB0F11F460FF1BC06F5FB7
:100BB0007F4F8F4F9F4F16C0882311F096E911C0C9
:100BC000772321F09EE8872F762F05C0662371F0EA
:100BD00096E8862F70E060E02AF09A95660F771FFE
:100BE000881FDAF7880F9695879597F90895990FDA
:100BF0000008550FAA0BE0E8FEEF16161706E807E7
:100C0000F907C0F012161306E407F50798F0621B07
:100C1000730B840B950B39F40A2661F0232B242BDC
:100C2000252B21F408950A2609F4A140A6958FEFFB
:100C3000811D811D089597F99F6780E870E060E04D
:100C400008959FEF80EC089500240A941616170665
:100C500018060906089500240A94121613061406AD
:100C600005060895092E0394000C11F4882352F010
:100C7000BB0F40F4BF2B11F460FF04C06F5F7F4FC8
:100C80008F4F9F4F089557FD9058440F551F59F0AF
:100C90005F3F71F04795880F97FB991F61F09F3F69
:100CA00079F087950895121613061406551FF2CF92
:100CB0004695F1DF08C0161617061806991FF1CFE2
:100CC00086957105610508940895E894BB27662709
:100CD0007727CB0197F908950E94F70508F48FEF65
:100CE00008950E9484060C9432060E94240638F06F
:100CF0000E942B0620F0952311F00C941B060C94F7
:100D0000210611240C9466060E94430670F3959FF9
:100D1000C1F3950F50E0551F629FF001729FBB27F2
:100D2000F00DB11D639FAA27F00DB11DAA1F649F8E
:100D30006627B00DA11D661F829F2227B00DA11D41
:100D4000621F739FB00DA11D621F839FA00D611DC7
:100D5000221F749F3327A00D611D231F849F600DE8
:100D6000211D822F762F6A2F11249F5750409AF011
:100D7000F1F088234AF0EE0FFF1FBB1F661F771F9D
:100D8000881F91505040A9F79E3F510580F00C9468
:100D90001B060C9466065F3FE4F3983ED4F38695F9
:100DA00077956795B795F795E7959F5FC1F7FE2B08
:100DB000880F911D9695879597F908950E94F705DC
:100DC000880B990B0895A1E21A2EAA1BBB1BFD01EB
:100DD0000DC0AA1FBB1FEE1FFF1FA217B307E4071A
:100DE000F50720F0A21BB30BE40BF50B661F771F72
:100DF000881F991F1A9469F7609570958095909552
:100E00009B01AC01BD01CF010895EE0FFF1F0590BE
:0A0E1000F491E02D0994F894FFCF4F
:100E1A000000000024018400B1007101E200C0005A
:100E2A00D4006E616E00696E66006F766600546566
:100E3A006D70657261747572652069732000206433
:100E4A0065672E2043202F00206465672E20460008
:040E5A000D0A00007D
:00000001FF
